:020000040800F2
:100000000030002055160008A5160008A5160008A7
:10001000A5160008A5160008A51600080000000097
:10002000000000000000000000000000A51600080D
:10003000A516000800000000A5160008E11500083C
:10004000A5160008A5160008A5160008A5160008A4
:10005000A5160008A5160008A5160008A516000894
:10006000A5160008A5160008A5160008A516000884
:10007000A5160008A5160008A5160008A516000874
:10008000A5160008A5160008A5160008A516000864
:10009000A5160008A5160008A5160008A516000854
:1000A000A5160008A5160008A5160008A516000844
:1000B000A5160008A516000800000000A5160008F7
:1000C000A51600080000000000000000A5160008AA
:1000D00000000000A5160008A5160008A5160008D7
:1000E000A5160008A516000800000000000000008A
:1000F0000000000000000000000000000000000000
:1001000000000000000000000000000000000000EF
:100110000000000000000000A5160008A516000859
:1001200000000000000000000000000000000000CF
:1001300000000000000000000000000000000000BF
:10014000A5160008A516000800000000A516000866
:10015000A5160008A5160008A5160008A516000893
:10016000A5160008A5160008000000000000000009
:10017000000000000000000000000000000000007F
:0801800000000000A5160008B4
:1001880010B5054C237833B9044B13B10448AFF3C9
:1001980000800123237010BD100000200000000023
:1001A800F016000808B5034B1BB103490348AFF329
:1001B800008008BD0000000014000020F0160008B0
:1001C80010B504460E4B18784FF47A73B3FBF0F36E
:1001D8000C4A1068B0FBF3F000F080F868B90F2CF7
:1001E80001D901200AE0002221464FF0FF3000F03B
:1001F80041F8034B5C60002000E0012010BD00BF07
:10020800000000200C00002008B5074A136843F0DE
:1002180010031360032000F01BF80020FFF7D0FF45
:1002280001F076F9002008BD00200240034A116859
:10023800034B1B780B441360704700BF300000204D
:1002480000000020014B1868704700BF30000020F4
:10025800074AD36823F4E0631B041B0C000200F474
:10026800E060184340F0BF6040F40030D060704751
:1002780000ED00E030B4174BDB68C3F30223C3F191
:100288000704042C28BF04241D1D062D18D9033B80
:100298004FF0FF3505FA04F421EA0401994005FA04
:1002A80003F322EA0303194300280BDB0901C9B24F
:1002B80000F1604000F5614080F8001330BC7047E1
:1002C8000023E5E700F00F000901C9B2024B1954F9
:1002D800F4E700BF00ED00E014ED00E00138B0F1F4
:1002E800807F0AD2064B5860064AF02182F8231014
:1002F8000020986007221A6070470120704700BFED
:1003080010E000E000ED00E0042805D0054A13687D
:1003180023F0040313607047024A136843F0040390
:100328001360704710E000E0704708B5FFF7FCFF66
:1003380008BD70B4066CC56B0124B4406C600468D9
:1003480063604368102B05D0036899600368DA601E
:1003580070BC704703689A600368D960F8E70000CA
:100368000268054B1344054AA2FB03231B099B00A3
:100378000364034BC3637047F8FFFDBFCDCCCCCCFF
:100388000000024040B310B50446022380F8213033
:1003980001680A6822F47F5222F0300243688068BC
:1003A8000343E06803432069034360690343A0698A
:1003B8000343E069034313430B602046FFF7D0FF74
:1003C8000020A062E06220636063A063012384F8D8
:1003D800213084F8200010BD0120704770B590F8D6
:1003E8002040012C20D0012480F8204090F82140A2
:1003F800012C04D0002380F82030022070BD044670
:10040800022084F821000025A5632668306820F0C2
:10041800010030602046FFF78CFF2268136843F024
:10042800010313602846E9E70220E7E72DE9F843CE
:1004380090F82130022B07D004238363002380F82F
:1004480020300120BDE8F88303681B6813F0200FF3
:1004580026D151BB036C02279F40164688460446A6
:10046800FFF7F0FE8146E56B2B683B422CD12968EB
:10047800226C0823934019421BD1B6F1FF3FF2D0FA
:100488002EB1FFF7DFFEA0EB0900B042EBD9202325
:10049800A363012084F82100002384F82030D1E7E9
:1004A8004FF4807383630120CCE7036C04279F40DB
:1004B800D3E7012000FA02F26A60A06384F8210001
:1004C800002384F82030BDE7B8F1000F0AD1226C70
:1004D800022393406B60012384F82130002084F8C4
:1004E8002000AFE7226C042393406B60F6E700001E
:1004F800F0B482B0002336E0032400E00024B440C6
:100508003C430235584E46F82540584C2568D4439C
:1005180004EA05064F6817F4803F01D042EA050651
:10052800524D2E606D6804EA05064F6817F4003FC7
:1005380001D042EA05064D4D6E60AD6804EA050635
:100548004F6817F4801F01D042EA0506474DAE6098
:10055800ED682C404E6816F4001F01D042EA0504ED
:10056800424AD46001330A6832FA03F478D001248D
:100578009C402240F6D04D68022D01D0122D10D19A
:10058800DE08083650F826C003F00705AF000F252F
:10059800BD402CEA050C0D69BD4045EA0C0540F844
:1005A800265006685F000325BD40ED4305EA060CAA
:1005B8004E6806F00306BE4046EA0C0606604E6822
:1005C80006F1FF3CBCF1010F03D9112E01D0122E08
:1005D80010D1866805EA060CCE68BE4046EA0C06CD
:1005E8008660466826EA04044E68C6F300169E40F4
:1005F80026434660C46825408C68BC402C43C460D0
:100608004C6814F0805FADD0194CA56945F0010520
:10061800A561A46904F001040194019C9D08AE1C25
:10062800114C54F8267003F00304A6000F24B440BC
:1006380027EA0407B0F1904F3FF460AF0D4CA04299
:100648000AD004F58064A04208D004F58064A04272
:100658003FF452AF052452E7012450E702244EE745
:1006680002B0F0BC704700BF000001400004014028
:1006780000100240000400480AB981627047816195
:100688007047000070B582B00446036813F0010F8C
:100698003BD0B64B5B6803F00C03042B1ED0B34B66
:1006A8005B6803F00C03082B13D06368B3F5803F35
:1006B80068D0002B40F0928003F1804303F50433A7
:1006C8001A6822F480321A601A6822F480221A60AA
:1006D8005DE0A64B5B6813F4803FE6D04FF400332F
:1006E80093FAA3F3A14B19684FF4003393FAA3F3D9
:1006F800B3FA83F303F01F03012202FA03F30B4258
:1007080003D06368002B00F0B382236813F0020F54
:1007180000F0C680954B5B6813F00C0F00F09C80CE
:10072800924B5B6803F00C03082B00F08F80236961
:10073800002B00F0F380012292FAA2F3B3FA83F3BC
:1007480003F1845303F584139B001A60FFF77AFDC5
:100758000546022393FAA3F3844B1968022393FAFC
:10076800A3F3B3FA83F303F01F03012202FA03F39E
:100778000B4240F0C480FFF765FD401B0228E8D912
:1007880003207CE2794A136843F480331360774A84
:10079800D36A23F00F03A1680B43D3626368002B6D
:1007A80036D0FFF74FFD05464FF4003393FAA3F315
:1007B8006E4B19684FF4003393FAA3F3B3FA83F33B
:1007C80003F01F03012202FA03F30B429DD1FFF746
:1007D80039FD401B6428E7D9032050E2B3F5A02F68
:1007E80009D0624B1A6822F480321A601A6822F41F
:1007F80080221A60CBE703F18043A3F53C331A68E3
:1008080042F480221A601A6842F480321A60BEE705
:10081800FFF718FD05464FF4003393FAA3F3534B43
:1008280019684FF4003393FAA3F3B3FA83F303F090
:100838001F03012202FA03F30B423FF466AFFFF7EE
:1008480001FD401B6428E6D9032018E2474B5B688A
:1008580013F4803F7FF46BAF022393FAA3F3434B67
:100868001968022393FAA3F3B3FA83F303F01F037F
:10087800012202FA03F30B4204D02369934201D008
:100888000120FCE13948036823F0F8036169F82284
:1008980092FAA2F2B2FA82F201FA02F21343036068
:1008A800236813F0080F00F08D80A369002B61D036
:1008B800012191FAA1F2B2FA82F22D4B13449B0066
:1008C8001960FFF7BFFC0546022393FAA3F293FAD7
:1008D800A3F293FAA3F2254A516A93FAA3F3B3FA5F
:1008E80083F303F01F03012202FA03F30B4269D1D9
:1008F800FFF7A8FC401B0228E6D90320BFE11B48EC
:10090800036823F0F8036169F82292FAA2F2B2FAB6
:1009180082F201FA02F213430360C1E7012393FA5A
:10092800A3F3B3FA83F303F1845303F584139B0011
:1009380000221A60FFF786FC0546022393FAA3F308
:100948000A4B1968022393FAA3F3B3FA83F303F06B
:100958001F03012202FA03F30B42A1D0FFF772FC36
:10096800401B0228E9D9032089E100BF001002409A
:1009780020819010012292FAA2F2B2FA82F2C14BBF
:1009880013449B0000221A60FFF75CFC0546022313
:1009980093FAA3F293FAA3F293FAA3F2BA4A516A2A
:1009A80093FAA3F3B3FA83F303F01F03012202FAC5
:1009B80003F30B4206D0FFF745FC401B0228E6D99B
:1009C80003205CE1236813F0040F00F0B380AE4B02
:1009D800DB6913F0805F20D1AB4BDA6942F08052BB
:1009E800DA61DB6903F080530193019B0125A74B72
:1009F8001B6813F4807F12D0E368012B23D073BBEC
:100A080003F1804303F504331A6A22F001021A62E3
:100A18001A6A22F004021A621AE00025E7E79B4AE4
:100A2800136843F480731360FFF70CFC0646974B7A
:100A38001B6813F4807FDFD1FFF704FC801B642858
:100A4800F5D903201BE1904A136A43F001031362AE
:100A5800E368002B41D0FFF7F5FB06462BE0052B9A
:100A680009D0894B1A6A22F001021A621A6A22F026
:100A780004021A62ECE7844B1A6A42F004021A6212
:100A88001A6A42F001021A62E2E77F4B196A0223EE
:100A980093FAA3F3B3FA83F303F01F03012202FAD4
:100AA80003F3194245D1FFF7CDFB801B41F2883390
:100AB800984200F2DF80022393FAA3F293FAA3F399
:100AC800B3FA83F35B0943F00203022BDDD0022360
:100AD80093FAA3F36C4B596AD9E7FFF7B3FB0646C1
:100AE80015E0694B196A022393FAA3F3B3FA83F367
:100AF80003F01F03012202FA03F3194219D0FFF78A
:100B0800A1FB801B41F28833984200F2B580022392
:100B180093FAA3F293FAA3F3B3FA83F35B0943F0CE
:100B28000203022BDDD0022393FAA3F3564B596A32
:100B3800D9E7B5BBE369002B00F0A080524A5268A0
:100B480002F00C02082A00F0A380022B2FD04FF0ED
:100B5800807393FAA3F3B3FA83F303F1845303F591
:100B680084139B0000221A60FFF76CFB04464FF0C9
:100B7800007393FAA3F3444B19684FF0007393FA88
:100B8800A3F3B3FA83F303F01F03012202FA03F37A
:100B980019426BD0FFF756FB001B0228E7D9032048
:100BA8006DE0394AD36923F08053D361C2E74FF02F
:100BB800807393FAA3F3B3FA83F303F1845303F531
:100BC80084139B0000221A60FFF73CFB05464FF098
:100BD800007393FAA3F32C4B19684FF0007393FA40
:100BE800A3F3B3FA83F303F01F03012202FA03F31A
:100BF800194206D0FFF726FB401B0228E7D903203D
:100C08003DE021494B6823F47413626A206A024369
:100C180013434B604FF0807393FAA3F3B3FA83F353
:100C280003F1845303F584139B0001221A60FFF734
:100C380009FB04464FF0007393FAA3F3124B1968AB
:100C48004FF0007393FAA3F3B3FA83F303F01F038F
:100C5800012202FA03F3194206D1FFF7F3FA001B47
:100C68000228E7D903200AE0002008E0002006E077
:100C7800012004E0032002E0032000E0002002B08D
:100C880070BD00BF2081901000100240007000402D
:100C98000120F4E710B4174B5C6804F00C03082B30
:100CA80026D104F470124FF4701393FAA3F3B3FA35
:100CB80083F322FA03F31049C85C0E4BDB6A03F096
:100CC8000F030F2292FAA2F2B2FA82F2D3400B4437
:100CD8001A7C14F4803F05D1084B03FB00F05DF843
:100CE800044B7047064BB3FBF2F300FB03F0F6E747
:100CF8000348F4E7001002400817000800093D0007
:100D080000127A00704B1B6803F007038B420CD269
:100D18006D4A136823F007030B431360136803F04D
:100D280007038B4201D00120704770B5036813F0A8
:100D3800020F06D0654A536823F0F0038468234302
:100D480053600C460546036813F0010F7AD04368D8
:100D5800012B2FD0022B42D0022292FAA2F25B4A38
:100D68001068022292FAA2F2B2FA82F202F01F028C
:100D7800012101FA02F2104200F0A48053494A68A6
:100D880022F0030213434B60FFF75CFA06466B68D8
:100D9800012B39D0022B46D04C4B5B6813F00C0F5B
:100DA80050D0FFF74FFA801B41F288339842F3D9AD
:100DB800032086E04FF4003292FAA2F2434A106808
:100DC8004FF4003292FAA2F2B2FA82F202F01F0253
:100DD800012101FA02F20242D0D1012071E04FF064
:100DE800007292FAA2F2394A10684FF0007292FA31
:100DF800A2F2B2FA82F202F01F02012101FA02F213
:100E08001042BBD101205CE0304B5B6803F00C035F
:100E1800042B17D0FFF716FA801B41F2883398424B
:100E2800F2D903204DE0294B5B6803F00C03082B33
:100E380008D0FFF707FA801B41F288339842F2D9AD
:100E480003203EE0204B1B6803F00703A3420CD9A4
:100E58001D4A136823F0070323431360136803F044
:100E68000703A34201D001202BE02B6813F0040FE5
:100E780006D0164A536823F4E063E9680B435360CD
:100E88002B6813F0080F07D0104A536823F46053F7
:100E9800296943EAC1035360FFF7FCFE0B4B5B680B
:100EA80003F0F003F02292FAA2F2B2FA82F2D340EF
:100EB800074AD35CD840074B18600020FFF780F939
:100EC800002070BD0120FCE7002002400010024015
:100ED800281700080C000020014B1868704700BF55
:100EE8000C00002008B5FFF7F7FF074B5B6803F419
:100EF800E0634FF4E06292FAA2F2B2FA82F2D340CF
:100F0800024AD35CD84008BD0010024038170008D8
:100F180008B5FFF7E1FF074B5B6803F460534FF434
:100F2800605292FAA2F2B2FA82F2D340024AD35C39
:100F3800D84008BD001002403817000810B5044614
:100F480083680269134342691343C2691343016802
:100F58000868654A024013430B602268536823F40B
:100F68004053E1680B435360A369226A1A4321681E
:100F78008B6823F4306313438B6023685B4A934286
:100F880015D05B4A934229D002F58062934221D062
:100F98001022E169B1F5004F22D0082A00F2A280A0
:100FA800DFE802F066727EA08AA0A0A0960002F593
:100FB8005842126B02F00302032A09D8DFE802F054
:100FC8000204060C0022E4E70422E2E70822E0E734
:100FD8001022DEE70022DCE70222DAE70022D8E767
:100FE800082A42D8DFE802F0051722412D41414185
:100FF8003800FFF777FF6268530803EB4003B3FB41
:10100800F2F39BB2002023F00F02C3F34203134311
:101018002268D36010BDFFF77BFF6268530803EBBB
:101028004003B3FBF2F39BB20020ECE7626853087D
:1010380003F5740303F51053B3FBF2F39BB20020DE
:10104800E1E7FFF727FE6268530803EB4003B3FBB1
:10105800F2F39BB20020D6E76268530803F58033A9
:10106800B3FBF2F39BB20020CDE701200023CAE7CF
:10107800FFF738FF636800EB5300B0FBF3F0236819
:1010880080B2D8600020C5E7FFF742FF636800EB35
:101098005300B0FBF3F0236880B2D8600020B9E7B2
:1010A80061684A0802F5F40202F59052B2FBF1F2C7
:1010B80092B2DA600020ADE7FFF7ECFD636800EB61
:1010C8005300B0FBF3F0236880B2D8600020A1E79A
:1010D80061684A0802F50042B2FBF1F292B2DA60A6
:1010E800002097E7012095E7F369FFEF00380140FA
:1010F80000440040436A13F0010F06D002685368A9
:1011080023F40033816A0B435360436A13F0020FE0
:1011180006D00268536823F48033C16A0B435360D6
:10112800436A13F0040F06D00268536823F480233F
:10113800016B0B435360436A13F0080F06D0026833
:10114800536823F40043416B0B435360436A13F025
:10115800100F06D00268936823F48053816B0B4309
:101168009360436A13F0200F06D00268936823F453
:101178000053C16B0B439360436A13F0400F0AD0CE
:101188000268536823F48013016C0B435360036CAB
:10119800B3F5801F0BD0436A13F0800F06D00268A6
:1011A800536823F40023816C0B4353607047026833
:1011B800536823F4C003416C0B435360EBE72DE9FC
:1011C800F04105460F4616469846069C2B68DB6993
:1011D80037EA03030CBF01230023B3421DD1B4F146
:1011E800FF3FF3D02CB1FFF72DF8A0EB0800A04289
:1011F800ECD92A68136823F4D07313602A689368BB
:1012080023F001039360202385F8693085F86A305C
:10121800002385F86830032000E00020BDE8F08155
:1012280030B583B004460023C366FFF70BF80546C4
:1012380023681B6813F0080F0ED123681B6813F08E
:10124800040F17D1202384F8693084F86A3000200D
:1012580084F8680003B030BD6FF07E430093034606
:1012680000224FF400112046FFF7A9FF0028E4D020
:101278000320EFE76FF07E4300932B4600224FF4E4
:1012880080012046FFF79BFF0028DBD00320E1E721
:1012980078B310B5044690F869300BB3242384F86A
:1012A80069302268136823F0010313602046FFF7B2
:1012B80045FE012813D0636ABBB92268536823F43A
:1012C800904353602268936823F02A03936022684E
:1012D800136843F0010313602046FFF7A1FF10BD18
:1012E80080F8683000F052F9D8E72046FFF702FF8F
:1012F800E3E701207047000010B58AB0214B5A6916
:1013080042F400225A615A6902F400220192019AB9
:101318005A6942F480025A615A6902F480020292C0
:10132800029A5A6942F400325A615A6902F4003248
:101338000392039A5A6942F480225A615B6903F462
:1013480080230493049B002220214FF09040FFF754
:1013580093F94FF4005305930B4B0693002407941D
:1013680005A90A48FFF7C4F820230593012306932B
:101378000794089405A94FF09040FFF7B9F80AB010
:1013880010BD00BF001002400000211000080048F6
:10139800FEE7000000B583B0104B5A6942F0010225
:1013A8005A615B6903F001030193019B0C480D4BE3
:1013B80003604FF48043436000238360C36003618C
:1013C80043618361C361FEF7DDFF10B903B05DF8C7
:1013D80004FBDB210448FFF7DBFF00BF00100240DD
:1013E80034000020080002404017000808B50B48E8
:1013F8000B4B03604FF4164343600023C360036143
:101408000C2242618361C36103624362FFF740FFBC
:1014180000B908BDC1210348FFF7BAFF78000020D2
:10142800004400404017000800B591B0022306931D
:1014380001220A9210220B920D9300230E934FF46F
:1014480060130F9306A8FFF71DF908BB0F2301933C
:1014580002210291002303934FF4806204920593C2
:1014680001A8FFF74FFCB8B9FFF736FD0C4BA3FBFB
:1014780000308009FEF732FF0420FEF745FF002206
:1014880011464FF0FF30FEF7F5FE11B05DF804FB92
:1014980095210448FFF77CFFA3210248FFF778FF56
:1014A800D34D62104017000838B5FEF7ADFEFFF7C0
:1014B800BBFFFFF721FFFFF76DFFFFF797FF1DE069
:1014C8000F4D01230F4A104921442846FEF786FF95
:1014D8004FF0FF3200212846FEF7A8FFFEF7B2FEC4
:1014E8000A4B1860FEF7AEFE084B1B6803F57A73CB
:1014F8009842F7D30134E4B2012CE1D90024FBE788
:101508003400002014000048080000202C000020AF
:1015180000B583B01C4B9A6942F001029A619B693D
:1015280003F001030193019B0720FEF791FE0022BF
:1015380011466FF00B00FEF79DFE002211466FF07A
:101548000A00FEF797FE002211466FF00900FEF729
:1015580091FE002211466FF00400FEF78BFE002278
:1015680011466FF00300FEF785FE002211466FF06A
:101578000100FEF77FFE002211464FF0FF30FEF714
:1015880079FE03B05DF804FB001002400268114BBD
:101598009A4200D0704700B587B003F5E633DA69A0
:1015A80042F40032DA61DB6903F400330093009BF4
:1015B8000C23019302230293002303930323049330
:1015C8000723059301A94FF09040FEF791FF07B05C
:1015D8005DF804FB0044004008B5FEF727FEFEF75F
:1015E800A4FE08BD1549D1F8883043F47003C1F84A
:1015F8008830134B1A6842F001021A605868114A81
:1016080002405A601A6822F0847222F480321A600A
:101618001A6822F480221A605A6822F4FE025A607C
:10162800DA6A22F00F02DA62186B074A02401A637C
:1016380000229A604FF000638B60704700ED00E075
:10164800001002400CC07FF8CCFC00FFDFF834D05B
:10165800002103E00C4B5B58435004310B480C4B02
:1016680042189A42F6D30B4A02E0002342F8043BA0
:10167800094B9A42F9D3FFF7B5FF00F011F8FFF7CD
:1016880013FFFEE700300020581700080000002074
:101698001000002010000020E8000020FEE70000F5
:1016A80070B50D4E0D4CA41BA4100025A54209D100
:1016B8000B4E0C4C00F018F8A41BA4100025A542F2
:1016C80005D170BD56F8253098470135EEE756F834
:1016D800253098470135F2E75017000850170008E1
:1016E8005017000854170008F8B500BFF8BC08BC2C
:1016F8009E467047F8B500BFF8BC08BC9E467047C8
:1017080002030405060708090A0B0C0D0E0F10103A
:101718000102030405060708090A0B0C0D0E0F1039
:101728000000000000000000010203040607080989
:1017380000000000010203042E2E2F5372632F6D48
:0817480061696E2E63000000D0
:04175000AD010008DF
:0417540089010008FF
:101758000100000010000000FF00000000127A00E5
:040000050800165584
:00000001FF
